:020000021000EC
:1000000030D50020212C01000D7F0100D92B0100EB
:10001000D92B0100D92B0100D92B0100D92B0100CC
:10002000000000000000000000000000D1280100D6
:10003000D92B01000000000075280100D92B010018
:100040005D2901005D2901005D2901005D29010094
:100050005D2901005D2901005D2901005D29010084
:100060005D2901005D2901005D2901005D29010074
:100070005D2901005D2901005D2901005D29010064
:100080005D2901005D2901005D2901005D29010054
:100090005D2901005D2901005D2901005D29010044
:1000A0005D2901005D2901005D2901005D29010034
:1000B000B93F01005D2901005D2901005D290100B2
:1000C0005D2901005D2901005D2901005D29010014
:1000D0005D2901005D2901005D2901005D29010004
:1000E0005D2901005D2901005D2901005D290100F4
:1000F0005D2901005D2901005D2901005D290100E4
:100100005D2901005D2901005D2901005D290100D3
:100110005D2901005D2901005D2901005D290100C3
:100120005D2901005D2901005D2901005D290100B3
:100130005D2901005D2901005D2901005D290100A3
:100140005D29010000000000000000000000000028
:10015000000000000000000000000000000000009F
:10016000000000000000000000000000000000008F
:10017000000000000000000000000000000000007F
:10018000000000000000000000000000000000006F
:10019000000000000000000000000000000000005F
:1001A000000000000000000000000000000000004F
:1001B000000000000000000000000000000000003F
:1001C000000000000000000000000000000000002F
:1001D000000000000000000000000000000000001F
:1001E000000000000000000000000000000000000F
:1001F00000000000000000000000000000000000FF
:10020000DEE61E284CBBCE8F025B00003C000000E7
:1002100058990000010000000000010000000100EA
:10022000FFFF02910000000000000000000000003D
:0C023000000000000000000000000000C2
:10023C0081F0004102E000BF83F0004330B54FEA8B
:10024C0041044FEA430594EA050F08BF90EA020FF8
:10025C001FBF54EA000C55EA020C7FEA645C7FEA8B
:10026C00655C00F0E2804FEA5454D4EB5555B8BFAE
:10027C006D420CDD2C4480EA020281EA030382EA1F
:10028C00000083EA010180EA020281EA0303362DB1
:10029C0088BF30BD11F0004F4FEA01314FF4801C84
:1002AC004CEA113102D0404261EB410113F0004F96
:1002BC004FEA03334CEA133302D0524263EB43034D
:1002CC0094EA050F00F0A780A4F10104D5F1200EEB
:1002DC000DDB02FA0EFC22FA05F2801841F1000146
:1002EC0003FA0EF2801843FA05F359410EE0A5F11A
:1002FC0020050EF1200E012A03FA0EFC28BF4CF04B
:10030C00020C43FA05F3C01851EBE37101F0004500
:10031C0007D54FF0000EDCF1000C7EEB00006EEB0D
:10032C000101B1F5801F1BD3B1F5001F0CD3490897
:10033C005FEA30004FEA3C0C04F101044FEA4452EE
:10034C0012F5800F80F09A80BCF1004F08BF5FEA75
:10035C00500C50F1000041EB045141EA050130BD55
:10036C005FEA4C0C404141EB0101013C28BFB1F567
:10037C00801FE9D291F0000F04BF01460020B1FAB2
:10038C0081F308BF2033A3F10B03B3F120020CDA85
:10039C000C3208DD02F1140CC2F10C0201FA0CF063
:1003AC0021FA02F10CE002F11402D8BFC2F1200CC8
:1003BC0001FA02F120FA0CFCDCBF41EA0C0190407E
:1003CC00E41AA2BF01EB0451294330BD6FEA0404C7
:1003DC001F3C1CDA0C340EDC04F11404C4F12002B2
:1003EC0020FA04F001FA02F340EA030021FA04F3C4
:1003FC0045EA030130BDC4F10C04C4F1200220FA1B
:10040C0002F001FA04F340EA0300294630BD21FA58
:10041C0004F0294630BD94F0000F83F4801306BF1E
:10042C0081F480110134013D4EE77FEA645C18BF12
:10043C007FEA655C29D094EA050F08BF90EA020FA9
:10044C0005D054EA000C04BF1946104630BD91EAA1
:10045C00030F1EBF0021002030BD5FEA545C05D1A4
:10046C004000494128BF41F0004130BD14F58004E3
:10047C003CBF01F5801130BD01F0004545F0FE4157
:10048C0041F470014FF0000030BD7FEA645C1ABF8C
:10049C00194610467FEA655C1CBF0B46024650EAC3
:1004AC00013406BF52EA033591EA030F41F40021EF
:1004BC0030BD00BF90F0000F04BF0021704730B575
:1004CC004FF4806404F132044FF000054FF000014A
:1004DC0050E700BF90F0000F04BF0021704730B50B
:1004EC004FF4806404F1320410F0004548BF4042E0
:1004FC004FF000013EE700BF42004FEAE2014FEA35
:10050C0031014FEA02701FBF12F07F4393F07F4F0F
:10051C0081F06051704732F07F4208BF704793F012
:10052C007F4F04BF41F40021704730B54FF4607425
:10053C0001F0004521F000411CE700BF50EA010228
:10054C0008BF704730B54FF000050AE050EA0102D1
:10055C0008BF704730B511F0004502D5404261EB41
:10056C0041014FF4806404F132045FEA915C3FF482
:10057C00D8AE4FF003025FEADC0C18BF03325FEA1F
:10058C00DC0C18BF033202EBDC02C2F1200300FAD0
:10059C0003FC20FA02F001FA03FE40EA0E0021FAF5
:1005AC0002F11444BDE600BF70B54FF0FF0C4CF4E3
:1005BC00E06C1CEA11541DBF1CEA135594EA0C0F95
:1005CC0095EA0C0F00F0DEF82C4481EA030621EAD0
:1005DC004C5123EA4C5350EA013518BF52EA03350B
:1005EC0041F4801143F4801338D0A0FB02CE4FF0BD
:1005FC000005E1FB02E506F00042E0FB03E54FF0ED
:10060C000006E1FB03569CF0000F18BF4EF0010EE4
:10061C00A4F1FF04B6F5007F64F5407404D25FEAE0
:10062C004E0E6D4146EB060642EAC62141EA555193
:10063C004FEAC52040EA5E504FEACE2EB4F1FD0CD5
:10064C0088BFBCF5E06F1ED8BEF1004F08BF5FEA53
:10065C00500E50F1000041EB045170BD06F0004605
:10066C0046EA010140EA020081EA0301B4EB5C04B2
:10067C00C2BFD4EB0C0541EA045170BD41F48011AA
:10068C004FF0000E013C00F3AB8014F1360FDEBFCF
:10069C00002001F0004170BDC4F10004203C35DAAB
:1006AC000C341BDC04F11404C4F1200500FA05F32E
:1006BC0020FA04F001FA05F240EA020001F00042CF
:1006CC0021F0004110EBD37021FA04F642EB060145
:1006DC005EEA430E08BF20EAD37070BDC4F10C046F
:1006EC00C4F1200500FA04F320FA05F001FA04F233
:1006FC0040EA020001F0004110EBD37041F100011F
:10070C005EEA430E08BF20EAD37070BDC4F1200529
:10071C0000FA05F24EEA020E20FA04F301FA05F291
:10072C0043EA020321FA04F001F0004121FA04F239
:10073C0020EA020000EBD3705EEA430E08BF20EA09
:10074C00D37070BD94F0000F0FD101F00046400043
:10075C0041EB010111F4801F08BF013CF7D041EAC5
:10076C00060195F0000F18BF704703F000465200C9
:10077C0043EB030313F4801F08BF013DF7D043EA9A
:10078C000603704794EA0C0F0CEA135518BF95EA50
:10079C000C0F0CD050EA410618BF52EA4306D1D1D7
:1007AC0081EA030101F000414FF0000070BD50EAF6
:1007BC00410606BF1046194652EA430619D094EA80
:1007CC000C0F02D150EA013613D195EA0C0F05D16A
:1007DC0052EA03361CBF104619460AD181EA0301BE
:1007EC0001F0004141F0FE4141F470014FF0000076
:1007FC0070BD41F0FE4141F4780170BD70B54FF011
:10080C00FF0C4CF4E06C1CEA11541DBF1CEA135590
:10081C0094EA0C0F95EA0C0F00F0A7F8A4EB050472
:10082C0081EA030E52EA03354FEA013100F0888069
:10083C004FEA03334FF0805545EA131343EA126332
:10084C004FEA022245EA111545EA10654FEA0026E7
:10085C000EF000419D4208BF964244F1FD0404F5A0
:10086C00407402D25B084FEA3202B61A65EB0305FC
:10087C005B084FEA32024FF480104FF4002CB6EBB9
:10088C00020E75EB030E22BFB61A754640EA0C0039
:10089C005B084FEA3202B6EB020E75EB030E22BF79
:1008AC00B61A754640EA5C005B084FEA3202B6EBBA
:1008BC00020E75EB030E22BFB61A754640EA9C0079
:1008CC005B084FEA3202B6EB020E75EB030E22BF49
:1008DC00B61A754640EADC0055EA060E18D04FEA07
:1008EC00051545EA16754FEA06164FEAC30343EAA7
:1008FC0052734FEAC2025FEA1C1CC0D111F4801F74
:10090C000BD141EA00014FF000004FF0004CB6E76C
:10091C0011F4801F04BF01430020B4F1FD0C88BF0B
:10092C00BCF5E06F3FF6AFAEB5EB030C04BFB6EB16
:10093C00020C5FEA500C50F1000041EB045170BD09
:10094C000EF0004E4EEA113114EB5C04C2BFD4EB36
:10095C000C0541EA045170BD41F480114FF0000EBA
:10096C00013C90E645EA060E8DE60CEA135594EA36
:10097C000C0F08BF95EA0C0F3FF43BAF94EA0C0F39
:10098C000AD150EA01347FF434AF95EA0C0F7FF4AE
:10099C0025AF104619462CE795EA0C0F06D152EA02
:1009AC0003353FF4FDAE1046194622E750EA4106E6
:1009BC0018BF52EA43067FF4C5AE50EA41047FF4F7
:1009CC000DAF52EA43057FF4EBAE12E74FEA41025A
:1009DC00B2F1E04324BFB3F5001CDCF1FE5C0DD991
:1009EC0001F0004C4FEAC0024CEA5070B2F1004FDB
:1009FC0040EB830008BF20F00100704711F0804FDE
:100A0C0021D113F13872BCBF01F00040704741F4A2
:100A1C0080114FEA5252C2F11802C2F1200C10FAA6
:100A2C000CF320FA02F018BF40F001004FEAC1238A
:100A3C004FEAD32303FA0CFC40EA0C0023FA02F32E
:100A4C004FEA4303CCE77FEA625307D150EA013304
:100A5C001EBF4FF0FE4040F44000704701F00040D4
:100A6C0040F0FE4040F40000704700BF80F00040B2
:100A7C0002E000BF81F0004142001FBF5FEA41036A
:100A8C0092EA030F7FEA226C7FEA236C6AD04FEA6A
:100A9C001262D2EB1363C1BFD218414048404140AF
:100AAC00B8BF5B42192B88BF704710F0004F40F461
:100ABC00000020F07F4018BF404211F0004F41F47D
:100ACC00000121F07F4118BF494292EA030F3FD049
:100ADC00A2F1010241FA03FC10EB0C00C3F120035C
:100AEC0001FA03F100F0004302D5494260EB4000EB
:100AFC00B0F5000F13D3B0F1807F06D340084FEA56
:100B0C00310102F10102FE2A51D2B1F1004F40EB4A
:100B1C00C25008BF20F0010040EA030070474900B2
:100B2C0040EB0000013A28BFB0F5000FEDD2B0FA4F
:100B3C0080FCACF1080CB2EB0C0200FA0CF0AABF72
:100B4C0000EBC25052421843BCBFD0401843704710
:100B5C0092F0000F81F4000106BF80F40000013216
:100B6C00013BB5E74FEA41037FEA226C18BF7FEAED
:100B7C00236C21D092EA030F04D092F0000F08BF2F
:100B8C000846704790EA010F1CBF0020704712F016
:100B9C007F4F04D1400028BF40F00040704712F155
:100BAC0000723CBF00F50000704700F0004343F0BA
:100BBC00FE4040F4000070477FEA226216BF0846F0
:100BCC007FEA23630146420206BF5FEA412390EAB3
:100BDC00010F40F4800070474FF0000304E000BFA9
:100BEC0010F0004348BF40425FEA000C08BF70475A
:100BFC0043F0964301464FF000001CE050EA01021E
:100C0C0008BF70474FF000030AE000BF50EA010232
:100C1C0008BF704711F0004302D5404261EB41011F
:100C2C005FEA010C02BF84460146002043F0B64344
:100C3C0008BFA3F18053A3F50003BCFA8CF2083A69
:100C4C00A3EBC25310DB01FA02FC634400FA02FC72
:100C5C00C2F12002BCF1004F20FA02F243EB020079
:100C6C0008BF20F00100704702F1200201FA02FCDB
:100C7C00C2F1200250EA4C0021FA02F243EB0200CE
:100C8C0008BF20EADC70704753B94AB9002908BF85
:100C9C0000281CBF4FF0FF314FF0FF3000F070B94F
:100CAC00ADF1080C6DE904CE00F006F8DDF804E0B7
:100CBC00DDE9022304B070472DE9F047089E0D468C
:100CCC0004468A46002B7FD18A42174641D9B2FA94
:100CDC0082F24AB1C2F1200105FA02F39740944026
:100CEC0020FA01F141EA030A4FEA17484FEA144C83
:100CFC001FFA87F9BAFBF8FE08FB1EA30EFB09F1DD
:100D0C004CEA0343994206D9FB1802D2994200F2ED
:100D1C0024810EF1FF3E591AA3B2B1FBF8F008FB87
:100D2C00101100FB09F943EA0144A14505D93C190E
:100D3C0002D2A14500F20E810138A4EB090440EA6D
:100D4C000E4000211EB1D4400023C6E90043BDE88B
:100D5C00F08702B9FFDEB2FA82F2002A4FD1CB1B28
:100D6C004FEA174E1FFA87F80121250CB3FBFEFC46
:100D7C000EFB1C302B4608FB0CF945EA0045A94537
:100D8C000AD97D192CBF01230023A94502D9002BB8
:100D9C0000F0D9800CF1FF3CA5EB0905A3B2B5FB23
:100DAC00FEF00EFB105508FB00F843EA0544A04585
:100DBC0005D93C1902D2A04500F2C9800138A4EB38
:100DCC00080440EA0C40BDE78B4208D9002E00F025
:100DDC00B1800021C6E900050846BDE8F087B3FAEA
:100DEC0083F1002946D1AB42C0F0A780824240F289
:100DFC00A4800846002EAAD0C6E9004AA7E7C2F193
:100E0C002000974001FA02F34FEA174EC14024FA32
:100E1C0000F51FFA87F894401D43B1FBFEF02B0C34
:100E2C000EFB101100FB08FC43EA01439C4509D959
:100E3C00FB182CBF012100219C4502D9002900F090
:100E4C0095800138A3EB0C03ADB2B3FBFEF10EFBA6
:100E5C00113301FB08FC45EA0345AC4505D97D1966
:100E6C0002D2AC4500F289800139A5EB0C0341EAB2
:100E7C0000417AE7C1F120048B4002FA01F705FA30
:100E8C0001FCE24020FA04F8E54000FA01FE1343AD
:100E9C0048EA0C024FEA13484FEA124C1FFA83F946
:100EAC00B5FBF8FA08FB1A550AFB09F04CEA054C9D
:100EBC0060450AD913EB0C0C2CBF012500256045AD
:100ECC0001D9002D55D00AF1FF3AACEB000C92B2CF
:100EDC00BCFBF8F008FB10CC00FB09F942EA0C4C07
:100EEC00E14505D913EB0C0C01D2E1453BD8013897
:100EFC0040EA0A40ACEB090CA0FB0789CC454546FF
:100F0C004A4602D306D1C64504D20138B8EB0705D0
:100F1C0069EB03022EB3BEEB05036CEB020C23FA58
:100F2C0001F20CFA04F42CFA01F300211443C6E983
:100F3C0000430CE73146304609E7841A65EB03039E
:100F4C0001209A4656E7ACF1020C3D4424E70238E6
:100F5C003C4434E702383C44EFE6AEF1020E3B442D
:100F6C00D9E63146F3E602389C44C1E702383B44EB
:100F7C0068E7AAF1020A9C44A7E702393D4474E7EA
:100F8C00704700BF08B5054805F004FA044B18601B
:100F9C0000B108BD034806F034FBFAE77895010070
:100FAC0050C70020809501002DE9F04782B08246A1
:100FBC008946002753E0012323E083681B694FF423
:100FCC008061984724E00123A34026EA03063C20D5
:100FDC0008F0EEF80134072C3EDC2C4D28688168B3
:100FEC000269136823F4806313600B684FF400727A
:100FFC000A219847286803691B6813F4806FDAD1BB
:10100C000023002BD9D08368DB684FF480619847AC
:10101C00052008F0CDF81D4D286881680269136819
:10102C0023F4806313600B684FF480720A21984795
:10103C000A2008F0BDF8286883685B6801A9984706
:10104C00034610B9019BC3F38023002BBBD00123B3
:10105C00A3401E43F6B2BAE70AF808600137B84657
:10106C004F4502D200242646B5E7084B1868816824
:10107C000269136823F4806313600B684FF4807269
:10108C000A21984702B0BDE8F08700BF50C7002086
:10109C002DE9F04780468946002750E0012337E0D0
:1010AC0083681B694FF480619847012008F080F831
:1010BC0045FA04F313F0010F32D13C2008F078F814
:1010CC002A4B186881680269136823F480631360E3
:1010DC000B684FF480720A21984735700134072C45
:1010EC002CDCDFF888A0DAF800008168026913684C
:1010FC0023F4806313600B684FF400720A21984745
:10110C00DAF8000003691B6813F4806FC6D1002362
:10111C00002BC5D08368DB684FF480619847C4E727
:10112C00124B186881680269136823F4806313609A
:10113C000B684FF480720A219847BEE701374F4580
:10114C0005D208EB070618F807500024C7E7074B31
:10115C00186881680269136823F4806313600B6854
:10116C004FF480720A219847BDE8F08750C70020E1
:10117C0010B582B0244C206881680269136823F48E
:10118C00806313600B684FF400720A219847206843
:10119C0003691B6813F4806F28D1002343B3836861
:1011AC00DB684FF4806198474FF4FA7008F000F850
:1011BC00154C206881680269136823F480631360FE
:1011CC000B684FF480720A2198473C2007F0F0FF1F
:1011DC00206883685B6801A99847034610B9019B96
:1011EC00C3F3802353B1002002B010BD0123D5E717
:1011FC0083681B694FF480619847D5E74FF4FA7008
:10120C0007F0D6FF0120EFE750C7002010B584B0DF
:10121C00FFF7AEFF33248DF8004001216846FFF73D
:10122C0037FF08216846FFF7BFFE102200216846F1
:10123C0006F056FF44238DF8003001216846FFF775
:10124C0027FF194807F0B4FFFFF792FF8DF8004015
:10125C0001216846FFF71CFF08216846FFF7A4FE32
:10126C0010220021684606F03BFFBE238DF80030AB
:10127C0001216846FFF70CFF0C216846FFF794FE2E
:10128C009DF801301B021BB29DF800001843FFF7BC
:10129C00A7FCFFF731F90022044BFFF785F9FFF7A4
:1012AC0095FB04B010BD00BF40420F000000B03FE2
:1012BC0008B52749274806F0A4F9FFF763FE264B2B
:1012CC0018684FF400720B2106F038F913E0002374
:1012DC0022E083681B694FF40061984723E00123E7
:1012EC002EE08368DB684FF4006198474FF4804030
:1012FC00002105F02DFFFFF789FFFFF7FDF80246EF
:10130C000B46164801F072FE134B186803691B68F4
:10131C0013F4006FDBD10123002BDAD08368DB6878
:10132C004FF4006198474FF48040002105F010FF06
:10133C00094B186803691B6813F4006FCFD10023A5
:10134C00002BCED183681B694FF400619847CDE721
:10135C00A0950100B495010050C70020E495010050
:10136C0008B50B6801330B60014B1B68984708BD2F
:10137C0000C50020014B1860704700BF00C500205D
:10138C0000B583B002460B460021019101A9034828
:10139C0000F0DAFA03B05DF804FB00BF6D13010036
:1013AC0010B584B00446019002910021039101A96B
:1013BC00054800F0C9FA039B029A934201DA002215
:1013CC00E254039804B010BDDF7501002DE9F04321
:1013DC0083B0044608461546238B13F0080F05D13D
:1013EC0003F0070600230093019369E0012909D05B
:1013FC0043F02003238385F31188BFF36F8F03B071
:10140C00BDE8F08343F010032383F4E7204606F095
:10141C003BF957E0D4F814904A466946204606F04A
:10142C004CF900275AE023691F680621204606F074
:10143C0004F94FF0000951E023695F68042120464C
:10144C0006F0FBF84FF0000948E023699F6805217E
:10145C00204606F0F2F84FF000093FE0002246E08B
:10146C00002244E043F00803238385F31188BFF383
:10147C006F8F002944D1009B2BB14B4642466946E5
:10148C00204606F090F917B125492046B8474FF091
:10149C002003EFF3118583F31288BFF36F8F238B37
:1014AC0023F008032383238B13F0100F2ED023F08B
:1014BC00100323830120268B06F0070600289AD000
:1014CC000228A3D0002896D00128A3D00328AAD0A4
:1014DC000428B1D00528B8D00027B946238B03F0D7
:1014EC000708B045BAD0A268002AB9D0012211462B
:1014FC00002AB7D1009A002AB4D1002FB2D1D2E77A
:10150C004A464146204606F0A0F8B4E713F0200FF7
:10151C0004D023F0200323830220CCE70020CAE769
:10152C00E17701002DE9F04F89B092461D46002865
:10153C0071F1000308DB9AF8003013F0080F14D097
:10154C002B23129A137002E02D23129A13709AF81F
:10155C0003B0C1F30A540246C1F3130364B952EA4F
:10156C00030130D14FF0000E08E013F0100FEED055
:10157C002023129A1370EAE74FF0000E40F2FF712D
:10158C008C4223D0BBF1460F5CD04FEAC32C4CEA03
:10159C00525CD2022CF0004C0692CDF81CC044EAEE
:1015AC000200E31743EA0C0150EA010308D0BEF134
:1015BC00000F4BD1A4F2FE34079B43F0004307937A
:1015CC004FF000085DE04FF0010ED7E7134320D138
:1015DC00ABF1410BBBF1190F11D84923139A1370BE
:1015EC004E2353700332462313998B709AF80030B4
:1015FC006FF386138AF80030149B1A608DE169230F
:10160C00139A13706E2353700332662313998B70E5
:10161C00ECE7ABF1410BBBF1190F09D84E23139A30
:10162C001370412213994A700A4603328B70DDE71E
:10163C006E23139A1370612213994A700A4603326F
:10164C008B70D3E74FF0660B9FE7013C069B079A24
:10165C0013EB030842EB0209CDE90689B8F1000F40
:10166C0079F10003F1DAA5E74FEA820C98004CEA15
:10167C009374C31844EB0202069307928C1C08F176
:10168C00FF3814F1020F26DA0799069B5B0843EA30
:10169C00C1734A080693079221460134B2F1333FD5
:1016AC00F2D2E1E7069B0233079A42F1000206935D
:1016BC00079206A806F01AFB013C08F10108069BEC
:1016CC00079ADE1842EB0207CDE90667013C002EB3
:1016DC0077F10003F3DA002CE4DCC4F10401079A7F
:1016EC001C34A1F12000069BCB4002FA04F42343E6
:1016FC0022FA00F00343CA4006930792BBF1670F2E
:10170C0012D0BBF1470F0FD00027BBF1660F29D0C9
:10171C006C1C102305939C4200DD1C4600224FF0EC
:10172C000063CDE9022328E018F1030F01DBA84583
:10173C0011DDABF1020B5FFA8BFB002D00DD013DDF
:10174C009AF80030C3F3401713F0200F08D1002D86
:10175C00DBDD0127D9E7A5EB08054FF0660BEFE7BA
:10176C000027D2E718EB0504D3D5102305930024EA
:10177C00D4E702A806F0D8FA3446661E002CF8D13D
:10178C00069B029A9B180093079A039B42EB030358
:10179C000193DDE90023CDE90623B3F1805F08BF97
:1017AC00002A07D2BBF1660F45D1B8F1000F3DDD21
:1017BC00139E0DE006A806F0B7FA08F10108F1E750
:1017CC0005A906A806F0BCFA06F8010B08F1FF38CB
:1017DC00B8F1000F02DD059B002BF1DCCAF8048088
:1017EC00A0469AF8003013F0200F01D1002D02DD35
:1017FC002E2306F8013BB8F1000F3BDA002D39DD42
:10180C00C8F10003CAF804309D4201DACAF804504A
:10181C00DAF80430ED1A002BD4BF002301239AF818
:10182C00022063F345128AF8022023E0139E302332
:10183C0006F8013BD5E705A906A806F081FA139E28
:10184C0006F8010B302801D008F1FF389AF8003067
:10185C0013F0200F01D1002D0CDD139B9E1C2E23A9
:10186C00139A537006E005A906A806F069FA06F863
:10187C00010B013D002D02DD059B002BF3DCCAF8AA
:10188C00085057B10023CAF8083033461E4613F8E7
:10189C00012D302AFAD02E2A43D0BBF1650F02D08D
:1018AC00BBF1450F2AD186F800B0B8F1000F3ADB36
:1018BC00B21C2B237370B8F1630F0DDD204981FB33
:1018CC0008314FEAE873C3EB611303F1300102F8FE
:1018DC00011B642101FB13881A4981FB08314FEA73
:1018EC00E873C3EBA10303F13001164606F8021BA3
:1018FC0003EB8303A8EB430330335370DAF8043063
:10190C00002B16DD01249AF8023064F386138AF852
:10191C000230149B1E6000233370139809B0BDE88D
:10192C00F08F1E46B9E7C8F10008B21C2D23737066
:10193C00C1E7DAF80830002BE5DD0124E3E700BF4E
:10194C001F85EB51676666662DE9F04F99B0064628
:10195C000D4617460593002400E001343878002822
:10196C0000F09185252807D001372946B04700287B
:10197C00F3DA19B0BDE8F08F00230A930B930F93A1
:10198C000DF15D0208928DF81F300C930D930E93A0
:10199C0007F101097B78252B02D04FF0010831E0CB
:1019AC0007F102098DF83330AEE19DF8303043F089
:1019BC0004038DF83030B8F1000F20D009F1010983
:1019CC001DE09DF8303043F008038DF83030F2E71D
:1019DC009DF8303043F010038DF83030EBE79DF874
:1019EC00303043F020038DF83030E4E79DF8303090
:1019FC0043F040038DF83030DDE74FF00008B8F1CC
:101A0C00000F29D099F80030203B102BF5D801A2FB
:101A1C0052F823F0DD190100071A0100071A010022
:101A2C00EB190100071A0100071A0100071A01003F
:101A3C00071A0100071A0100071A0100071A010012
:101A4C00CF190100071A0100B7190100071A01008C
:101A5C00071A0100F91901009DF8303003F0440316
:101A6C00442B6DD0CDF824909DF8303043F080039A
:101A7C008DF8303099F800302A2B68D009A806F080
:101A8C0022F9099B994512D09DF8303043F0800320
:101A9C008DF830300D90C3F34003002860DB00223A
:101AAC0013439DF8302063F341028DF83020099BDD
:101ABC0009931B782E2B14BF002301239DF8312092
:101ACC0063F341028DF83120002B4BD0099B5A1C3B
:101ADC0009925B782A2B48D009A806F0F4F80E90EE
:101AEC009DF83030C3F34003002847DB002213433A
:101AFC009DF8302063F341028DF83020DDF82490FE
:101B0C0099F800304C3B2E2B00F2DC80DFE803F020
:101B1C00CADADADADADADADADADADADADADADADA29
:101B2C00DADADADADADADADADADADADA38DA6ADA1B
:101B3C0051DADADADADADADAC0DADADADADAB6009A
:101B4C009DF830306FF386138DF830308AE79DF8AE
:101B5C00313043F001038DF831304B460133A7E7A8
:101B6C0001229DE7DDF82490CAE79DF8313043F05F
:101B7C0004038DF8313002F10109C1E70122B6E707
:101B8C0009F1010299F80130682B08D09DF8313029
:101B9C00022161F3C6038DF8313091462BE09DF89C
:101BAC003130012262F3C6038DF8313009F102099C
:101BBC0021E009F1010299F801306C2B08D09DF855
:101BCC003130032161F3C6038DF83130914612E0B8
:101BDC009DF83130042262F3C6038DF8313009F1DF
:101BEC00020908E09DF83130052262F3C6038DF836
:101BFC00313009F1010919F8012B8DF83320A2F1CC
:101C0C004103372B00F28581DFE813F031018301AA
:101C1C00830183013101310131018301830183018E
:101C2C008301830183018301830183018301830188
:101C3C00830183018301830183011C0183018301DF
:101C4C0083018301830183018301830131018301BA
:101C5C001C016300310131013101830163008301F7
:101C6C0083018301830162011C01730183018301E0
:101C7C00730183011C01830183011C019DF8313028
:101C8C00062262F3C6038DF8313009F10109B2E77F
:101C9C009DF83130072262F3C6038DF8313009F11B
:101CAC000109A8E79DF83130082262F3C6038DF8CC
:101CBC00313009F101099DF8303043F002038DF801
:101CCC00303098E79DF831306FF3C6038DF8313022
:101CDC0091E79DF83230012161F302038DF8323027
:101CEC009DF8313003F07803402B00F0B380632A69
:101CFC0000F0B7809DF83030C3F3400248EA020888
:101D0C0068F341038DF830309DF8313013F0010F3A
:101D1C0000F01281059B1A1D0592D3F80080B8F1D2
:101D2C00000FC0F200819DF8313013F0040F00F069
:101D3C001681059B1A1D0592D3F800A0BAF1000F6D
:101D4C00C0F2048100230D930E939DF8323003F002
:101D5C000703042B00F00C819DF8323003F00703CD
:101D6C009DF83110C1F3C301012B00F01181022B3E
:101D7C0000F05681042B00F0A781032B00F0BE81EC
:101D8C009DF8302012F0030F40F0BE819DF83330E7
:101D9C00253B532B00F2CB81DFE813F0C201C901C4
:101DAC00C901C901C901C901C901C901C901C901D7
:101DBC00C901C901C901C901C901C901C901C901C7
:101DCC00C901C901C901C901C901C901C901C901B7
:101DDC00C901C9018A02C901C901C9018A028A0261
:101DEC008A02C901C901C901C901C901C901C901D5
:101DFC00C901C901C901C901C901C901C901C90187
:101E0C00C9012402C901C901C901C901C901C9011A
:101E1C00C901C9018A02C9010E0216028A028A028C
:101E2C008A02C9011602C901C901C901C9016602A8
:101E3C0024024E02C901C901CB01C9012402C90106
:101E4C00C90124029DF83230022161F302038DF89E
:101E5C00323045E79DF8301041F001018DF830101B
:101E6C0045E7B3F1000818BF4FF0010842E79DF8B1
:101E7C003230042161F302038DF83230612A1FD015
:101E8C00412A1BD000229DF8313062F3C7138DF824
:101E9C003130DAB213F0800F42D102F07802182AF6
:101EAC0010D0002A3FF426AF402A3FF423AF9DF810
:101EBC00303043F001038DF830301BE70122E2E7AC
:101ECC000122E0E7DBB26FF3C6038DF8313011E786
:101EDC009DF83230032262F302038DF832309DF804
:101EEC00313003F07803402B7FF404AF4FF001083E
:101EFC0000E79DF83230032262F302038DF8323092
:101F0C009DF8313013F0780F3FF4F4AE4FF0010828
:101F1C00F0E69DF8303043F001038DF83030E9E6FF
:101F2C004FF00108E6E69DF8303043F004038DF8DD
:101F3C003030C8F10008F6E69DF93030002B02DB9A
:101F4C004FF0FF38EFE6DDF83480ECE69DF83130E9
:101F5C006FF341038DF831304FF0FF3AF2E613F096
:101F6C00020F02D0DDF838A0ECE64FF0FF3AE9E6BC
:101F7C009DF8313013F0020F7FF4EEAE9DF9313045
:101F8C00002B02DB4FF0060AE6E64FF00D0AE3E603
:101F9C00CB1E042B04D8DFE803F00B1D29353500CC
:101FAC00059B1A1D05921A68D317CDE90A2306E082
:101FBC00059B1A1D05921A68D317CDE90A2301292E
:101FCC0028D002297FF4DCAEBDF92820D317CDE947
:101FDC000A23D5E6059B073323F0070303F1080218
:101FEC000592D3E90023CDE90A23E8E7059B0733E3
:101FFC0023F0070303F108020592D3E90023CDE98E
:10200C000A23DCE7059B1A1D05921A68D317CDE944
:10201C000A23D4E79DF828300A9300230B93AFE6EC
:10202C00CB1E042B04D8DFE803F00B1F3541410015
:10203C00059B1A1D05921B680A9300230B931EE047
:10204C009DF83330632B07D0059B1A1D05921B6836
:10205C000A9300230B9312E0059B1A1D05921B6833
:10206C000A9300230B930AE0059B073323F0070325
:10207C0003F108020592D3E90023CDE90A230129D3
:10208C001CD002297FF47CAEBDF828300A930023C3
:10209C000B9375E6059B073323F0070303F1080246
:1020AC000592D3E90023CDE90A23E8E7059B1A1D25
:1020BC0005921B680A9300230B93E0E79DF82830E8
:1020CC000A9300230B935BE608290BD0059B07337F
:1020DC0023F0070303F108020592D3E90023CDE9AD
:1020EC000A234DE6059B073323F0070303F108028F
:1020FC000592D3E90023CDE90A2341E6059B1A1D7D
:10210C0005921B680A933BE64B463A4629463046F5
:10211C0005F09CFE0028FFF62CAC04444F461DE451
:10212C0029462520B0470028FFF623AC01344F4642
:10213C0014E40A9FBAF1000F3ADB5146384605F019
:10214C0080FF38440890002FF1D0089BDB1B9DF8D2
:10215C001F0000B101339DF8321011F0100F00F088
:10216C00B68002330D9A134411F0400F01D00E9A31
:10217C001344B8F1000F40F3C380A8EB03089DF89B
:10218C00303013F0040F40F0BB8013F0400F00F020
:10219C00A480002800F0A4802946B0470028FFF650
:1021AC00E8AB013400238DF81F304FF0300A99E072
:1021BC00384605F03EFFC4E70A9B8DF844300DF11C
:1021CC004503089311AFBEE712F0080F24D02B2360
:1021DC008DF81F30DDE90A23002A73F1000122DBA0
:1021EC00CDE90A23089B009311AB0CAADDE90A0187
:1021FC0005F0C2FD0746BAF1000FA4DB089BDB1B00
:10220C009DF830206FF386128DF830209A459AD9BC
:10221C00AAEB03030D9396E712F0100FDAD02023EC
:10222C008DF81F30D6E72D218DF81F10524263EB2D
:10223C004303CDE90A23D5E70A9818B9934F0897B9
:10224C00053F80E7089B009311AB0CAA002105F019
:10225C0093FD07469DF8323043F010038DF8323071
:10226C0078238DF83330C6E70A9A9DF83130C3F3E2
:10227C00C303072B3FF65BAFDFE803F00406080A45
:10228C000C111618146052E7147050E714804EE7C6
:10229C0014604CE72046E117C2E9000147E72046ED
:1022AC00E117C2E9000142E7146040E714603EE721
:1022BC0008AB029311AB01930DF11F03009353462E
:1022CC000CAADDE90A01FFF72DF907463BE711F0EF
:1022DC00080F3FF447AF013344E74FF0200A01E009
:1022EC004FF0300A434603F1FF38002B08DD294636
:1022FC005046B0470028FFF63CAB01344346F2E7AA
:10230C009DF81F0028B12946B0470028FFF631ABD5
:10231C0001349DF8323013F0400F70D09DF93130FC
:10232C00002B0CDB3878A0F13003092B12D80137C5
:10233C002946B0470028FFF61CAB0134F2E7387889
:10234C00702843D001372946B0470028FFF611AB5F
:10235C000134F4E7DDF834A09DF8323013F0200F8F
:10236C000FD038782E281CD03878A0F13003092BE8
:10237C002CD801372946B0470028FFF6FAAA0134B9
:10238C00F2E70AF1FF3BBAF1000F08DD29463020D5
:10239C00B0470028FFF6EDAA0134DA46F1E7DA4639
:1023AC00DFE701372946B0470028FFF6E2AA0134DF
:1023BC000AF1FF3BBAF1000FD6DD29463020B047B9
:1023CC000028FFF6D6AA0134DA46F1E70E9B03F19A
:1023DC00FF3A002B08DD29463020B0470028FFF6D5
:1023EC00C8AA01345346F2E7089B3A4629463046C0
:1023FC0005F02CFD0028FFF6BCAA044433E09DF840
:10240C003230C3F30012C3F3C003134306D0294682
:10241C003020B0470028FFF6ACAA01349DF83230CA
:10242C0013F0100F07D029469DF83300B047002851
:10243C00FFF69FAA01340D9B03F1FF3A002B08DD38
:10244C0029463020B0470028FFF693AA01345346A2
:10245C00F2E7089B3A462946304605F0F7FC00287F
:10246C00FFF687AA0444B8F1000F09DD29462020A5
:10247C00B0470028FFF67DAA013408F1FF38F2E7D7
:10248C004F46FFF76BBA2046FFF773BAFD95010074
:10249C004FF02002EFF3118382F31288BFF36F8F9A
:1024AC00044A0121C2F8401583F31188BFF36F8FE2
:1024BC00002070470090034030B108B58001034BF9
:1024CC0043F00103984708BD704700BF70950100A9
:1024DC0070B584B02A4B1C7D04F01F0301229A4076
:1024EC006109284B03EB8103D043D3E8EF1F01EACA
:1024FC000005C3E8E65F002EF7D10A423DD004EB9D
:10250C0044039A00204B134493E8070004AB03E9FF
:10251C0007001E4B63B105F0C7FC4FF02003EFF32F
:10252C00118683F31288BFF36F8F194B1D680AE075
:10253C00002383F31188BFF36F8FEEE72B460DB1A9
:10254C002B686BB11D465DB1AA68002AF6D00C4B06
:10255C001B7D03EB430399000B4B585C9047EDE755
:10256C0086F31188BFF36F8F074804EB4404A20075
:10257C008118002383504B608B6004B070BD00BF8A
:10258C00B0CB00205CC7002060C70020B57E0100E6
:10259C0054C70020F0B589B005464E4B1C7D04F0A5
:1025AC001F0301229A4061094B4B03EB8103D3E8D3
:1025BC00EF1F41EA0200C3E8E60F002EF7D10A42F2
:1025CC0016D004EB4403454A12F82330002B7FD07D
:1025DC00B5F1FF3F1CD104F0A9FA4FF02003EFF343
:1025EC00118683F31288BFF36F8F3D4B1D682AE071
:1025FC0004EB4406394B03EB86066F462A4621460C
:10260C00384605F05CFC97E8070086E80700D8E739
:10261C0004EB440302EB83039B68590CD803314E43
:10262C00314A002380194FF0000646EB0101FEF7FA
:10263C002BFB0121281A06F088FDCCE72B460DB1A7
:10264C002B686BB11D465DB16A68002AF6D0214B30
:10265C001B7D03EB4303214911F823009047EDE761
:10266C0086F31188BFF36F8F04F01F03012199408B
:10267C0063091E4A02EB8303D3E8EF2F0A43C3E836
:10268C00E02F0028F8D104EB4403144A02EB830337
:10269C0093E8070008AB03E90700154B0BB105F0F5
:1026AC00F0FBFFF715FF04F03FFC012004F01F02C4
:1026BC00012393406409084A02EB8404DB43D4E809
:1026CC00EF2F1A40C4E8E12F0029F8D109B0F0BD72
:1026DC000020EBE7B0CB00206CC7002060C70020C7
:1026EC0054C700203F420F0040420F005CC700203F
:1026FC008F7E010008B504F019FA024805F033FC8E
:10270C0008BD00BF70C7002008B5034805F02CFCBD
:10271C0004F00AFC08BD00BF70C70020014910225C
:10272C000A60704710ED00E072B6404080F31188EB
:10273C00BFF36F8FBFF34F8F30BF62B6BFF36F8F96
:10274C00704700BF72B6494081F3118820BF80F3F7
:10275C00118862B6704700BF43B2002B08DB00F053
:10276C001F005B09012202FA00F0024A42F8230022
:10277C00704700BF00E100E04209054B53F82220EE
:10278C0000F01F00012303FA00F01040704700BF57
:10279C0000E100E0013143B2002B08DB4901C9B272
:1027AC0003F1604303F5614383F80013704700F0B5
:1027BC000F004901C9B2014B1954704714ED00E0E8
:1027CC0008B572B6054B9B690BB962B608BD034BD5
:1027DC0000229A6106F00CFBF7E700BFB0CB00209B
:1027EC0030BFFFF7FDBF00BF08B50F4B0F4A22F0FB
:1027FC007F029A60BFF34F8FBFF36F8FD3F888209F
:10280C0022F47002C3F88820EFF3148323F004033E
:10281C0083F31488BFF36F8F03F092FE04F0F2FC85
:10282C0000F0DEF903F098FE00ED00E0000001007E
:10283C000A4A9368C3F8A80009490968C3F8AC10A0
:10284C0008494B6843F080534B60002383F3118895
:10285C00BFF36F8F9368D3F8AC007047B0CB0020F8
:10286C00D097010000ED00E014498A684FF0300069
:10287C001044EFF3098C80E8F01F202080F31288BD
:10288C00BFF36F8F0E4F4FF00066CA698A603E60CF
:10289C00D2F8A8000023C2F8A83080F3118802F106
:1028AC00300090E8F01F8CF3098802F1000004B5A9
:1028BC0005F02CFBBDE8044070470000B0CB0020B5
:1028CC0004ED00E01EF0040F0CBFEFF30880EFF3F3
:1028DC000980816911F8021C0229FFD001B505F0AD
:1028EC0003FB01BD10B4A2F120040D4921F001013C
:1028FC0042F8081C42F8203C019B42F81C3C029B0D
:10290C0042F8183C039B42F8143C4FF0807342F899
:10291C00043C04650023C0F8A83010BC704700BF0D
:10292C00ED780100094B9860D0F8983083F30B8850
:10293C00104681F30988002163B681F31188BFF337
:10294C006F8F0022002304F0CBFF00BFB0CB002020
:10295C0001B572B60B4A906900281EBF0021916127
:10296C0006F046FA62B6EFF30580A0F110004FEACC
:10297C00C0000549014409C99847BDE80140034915
:10298C0008470000B0CB0020E89201009D2901000F
:10299C00044B9968D869884203D003494FF08052A0
:1029AC000A607047B0CB002004ED00E010B514466F
:1029BC00134B9A6A9A6A9B6A13F0020F0BD0104B56
:1029CC005A6B9B6A13F0800F05D021B10C4A936AA5
:1029DC0023F0800393620A4B9A6A9A6A9B6A13F0FB
:1029EC00100F01D1064B9B6A054A936A43F0FF0313
:1029FC009362012105F08FFA2070002010BD00BFFA
:102A0C0000ED00E010B51446124B9A6A9A6A9B6A64
:102A1C0013F4007F0BD00F4B9A6B9B6A13F4004F8F
:102A2C0005D021B10B4A936A23F400439362094BFE
:102A3C009A6A9B6A13F4807F01D1064B9B6A054A04
:102A4C00936A43F47F439362012105F064FA20708A
:102A5C00002010BD00ED00E00A4B9A6A9A6A986A51
:102A6C0010F480100BD1074B9A6A9A6A9A6A9A6A88
:102A7C009A6A6FEA02426FEA12429A627047022027
:102A8C00F1E700BF00ED00E010B5044600230B7029
:102A9C001B4BD86A10F002002DD1DB6A002B2BDB0C
:102AAC00174BDB6A13F0804327D0A36933F8022C51
:102ABC004DF602739A4210D003F1604303F626637D
:102ACC001B7863B90F4B1B787BB90F4B1B889BB2E0
:102ADC0093B12046FFF7C0FF0EE020680CE00A46D9
:102AEC0001212046FFF762FF06E00A46012120463D
:102AFC00FFF788FF00E0002010BD1846FCE700BF80
:102B0C0000ED00E029ED00E02AED00E070B58AB0A0
:102B1C000C46274B5968C1F30801002383F3118835
:102B2C00BFF36F8F02F07F43B3F17F4F15D112F0DB
:102B3C00010F1FD112F0400F05D112F0080F0AD16E
:102B4C00044601260BE012F0040F01D0002606E02B
:102B5C000446002603E0002601E0002634460DF171
:102B6C002702204605F0DCF905469DF8273023B1F5
:102B7C000AB070BD00263446F1E72022214601A898
:102B8C0005F08AFA4EB1089BC3F308025AB96FEAF2
:102B9C0053236FEA4323089305E0089B23F4FF7348
:102BAC0023F00103089301A9284605F099F9DFE702
:102BBC0000ED00E0044B5A6942F010025A615A6968
:102BCC0042F480625A61704700ED00E0EFF3088038
:102BDC00EFF3098101B57246FFF798FF01BD00BF05
:102BEC00002206E002F00F01094B0B44202119765C
:102BFC000132402A0ADC53B2002BF3DB03F16043B1
:102C0C0003F56143202183F80013F1E7704700BFFF
:102C1C00FCEC00E006F004FB202080F3118808484F
:102C2C004FF40061401880F30988EFF314800221FF
:102C3C00084380F31488BFF36F8FFFF7D5FD0000B6
:102C4C0070D60020BFF34F8F0549CA6802F4E062CA
:102C5C00044B1343CB60BFF34F8F00BFFDE700BFA6
:102C6C0000ED00E00400FA0508B5084B9B688342B0
:102C7C0002D004F09FFA08BDEFF30583002BF8D0C7
:102C8C00034A536843F080535360F2E7B0CB002003
:102C9C0000ED00E010B584B0094C2346094A01212F
:102CAC00094805F0A4F900230393084B0193E41A97
:102CBC000294012101A805F09EF904B010BD00BFDB
:102CCC000000042000C5002000960100B0C50020C3
:102CDC00014B024A1A63704790ED00E0AAFF4400D2
:102CEC0010B40B6823F01F020C7A04F01F031A4374
:102CFC00CB6823F01F03640943EA440343F0010348
:102D0C0002498860CA600B6110BC704790ED00E00E
:102D1C002DE9F04F87B081460091019314460027AE
:102D2C0034E06FF0150653E0D84569D12946F0B26E
:102D3C0005F042F929E0584B9860D96801F01F0161
:102D4C0022F01F020A43DA602946E0B205F034F99A
:102D5C00044610F1160F00F09780013415E0013B8A
:102D6C004D4988600A6902F01F0223F01F031343C8
:102D7C000B612946E0B205F01FF9044610F1160F5D
:102D8C0000F08280013400E001340137009B9F4247
:102D9C007ADA07EB47054FEA850A09EB8505D5F882
:102DAC000480B8F1000FF0D0019B23B1284605F048
:102DBC00E6F8002864D059F80AB0584605F0D5F862
:102DCC00064608EB0B00013805F0CFF88642A8D177
:102DDC0016F1160F57D0631EB34259DB30462E4BFB
:102DEC009E60D96821F01F019E601B6943F01F088B
:102DFC0059F80A306A681A4402F1FF3B994293D0A1
:102E0C00994298D0D845AAD0013B23490646886000
:102E1C000A6902F01F0223F01F0313430B612946BA
:102E2C00E0B205F0C9F8044610F1160F2CD00130B1
:102E3C00194B9E60D9689DF8102061F304028DF83F
:102E4C0010201B69C3F34203D2B263F347128DF80F
:102E5C00102059F80A306A681344029323F01F03B8
:102E6C00A8EB0B084344013B23F01F03059302A975
:102E7C00C0B205F096F8044610F1160F84D103E0A9
:102E8C006FF0150400E03446204607B0BDE8F08F23
:102E9C006FF01504F8E700BF90ED00E010B5034C9F
:102EAC0001232278FFF734FF207010BDFACB0020ED
:102EBC002DE9F84307468846002403E06FF015051A
:102ECC0017E00134A0453CDD04EB44039A0007EB0A
:102EDC0083035E68002EF4D057F80290484605F044
:102EEC0044F8054606EB0900013805F03EF885422A
:102EFC00E4D104EB8403164A42F8235015F1160F63
:102F0C0020D0144B1B78AB421FDD04EB840302EB87
:102F1C008303114A95609560D568187B65F30400AE
:102F2C0018731069C0F342001D7B60F347151D73C5
:102F3C00D16821F01F015960126922F01F021A6139
:102F4C00BFE700252846BDE8F8836FF01505F9E7C3
:102F5C00F8C70020FACB002090ED00E0034B0522CF
:102F6C005A60BFF34F8FBFF36F8F704790ED00E047
:102F7C00BFF35F8F014B00225A60704790ED00E069
:102F8C0038B50E4B1D68102D15D8FFF7F1FFFFF764
:102F9C009FFE0024A54208D9084B596801EB041187
:102FAC002046FFF79DFE0134F4E7054B1D70FFF73B
:102FBC00D5FF002038BD4FF0FF30FBE71C96010019
:102FCC00FACB0020014B1860704700BF04C50020ED
:102FDC000239012904D808B5034B1B68984708BD72
:102FEC004FF0FF30704700BF04C500200FB400B590
:102FFC0083B004AB53F8042B019302210348FEF772
:10300C00A3FC03B05DF804EB04B070472D81010004
:10301C00004870475CC80020034BC01A8010034B5B
:10302C0003FB00F0704700BF1CC80020B76DDBB677
:10303C0038B505460C46FFF7EFFF01464022034822
:10304C0005F0E9F801462846A04738BD88920100F2
:10305C0030B583B005460C46FFF7DEFF0146402332
:10306C0000932346054A064805F0EFF8011E01DBE4
:10307C0003B030BD2846A047FAE700BF9F8201008D
:10308C008892010008B510B101280DD008BD0021AF
:10309C00084805F049F8836813F0070FF6D10021B2
:1030AC00044805F0A6F8F1E70121024805F0A1F863
:1030BC00ECE700BF8892010010B54FF02003EFF34E
:1030CC00118483F31288BFF36F8F134A136843F094
:1030DC000203136013F0010F08D1002384F311884D
:1030EC00BFF36F8F93B905F0DCF810BD0B4BD3F821
:1030FC000C24D3F80C3412F0010F01D10023EDE7AE
:10310C00FFF786FF05F062F80123E7E7002104488A
:10311C0005F06FF8E9E700BF6CC8002000500040D4
:10312C008892010008B5084BD3E8EF2F22F002017A
:10313C00C3E8E01F0028F7D112F0010F00D008BD42
:10314C0005F0B9F8FBE700BF6CC8002000B585B0EE
:10315C00CDF800D0CDF804D00023029301230393C3
:10316C006B46074A05F08DF8002805DB4FF48042CA
:10317C000023684603F032FC05B05DF804FB00BF89
:10318C00D782010070B50646002201210520FFF709
:10319C0001FB0520FFF7E0FA114801F049F8114B4B
:1031AC0098421AD105F050FC002403E00123AB60D7
:1031BC001C44E4B2012C0ED82146304604F0B4FF76
:1031CC0005462146304604F0BAFF074904F010FBCF
:1031DC000028EBDA00E0002070BD6FF00400FBE784
:1031EC00913001000000AD0B7496010070B50546DE
:1031FC00012806D1324BD3F81C3403F00303022B05
:10320C003CD005F0E0FD20B92E4B1B7893B1002388
:10321C0000E001231C467BB14FF02003EFF3118635
:10322C0083F31288BFF36F8F94B9254B0222C3F836
:10323C0008230DE00123EDE70026F5E7FCB130464D
:10324C00FFF780FA1E4BD3F81835DBB2012B1BD0DD
:10325C001B4AD2F8183403F00303D2F8182412F4E2
:10326C00803F25D10022002AE8D0022B01D0012D6D
:10327C00E4D1FCB186F31188BFF36F8F70BD2120B0
:10328C00002103F065FFDDE70F4B1B68002BDFD03F
:10329C000D4B00221A601B68094B0222C3F818253B
:1032AC000A4B2022C3F88021094B01221A60CFE778
:1032BC000122D8E7024B0222C3F80423DEE700BF49
:1032CC00005000402CCD00200451004000E100E0F3
:1032DC000850004010B504460E4B0121D3E8EF2FE7
:1032EC00C3E8E01F0028F9D11AB1631E012B0CD9D9
:1032FC0010BD094804F023FF084900234B60CB6044
:10330C0001238B6004F090FAEFE72046FFF76EFF85
:10331C00EEE700BF70C80020889201000CC80020A6
:10332C0010B504460A2807D0074B1868E1B2836829
:10333C005B689847204610BD034B186883685B6830
:10334C000D219847F0E700BF74C8002010B5044C5D
:10335C002046FFF737FE2046FEF70CF810BD00BFE5
:10336C002D33010008B50648064B186005F07DFCAE
:10337C0018B1FFF7EBFF002008BD6FF01200FBE760
:10338C00D092010074C800201F4B03401F4A934287
:10339C0032D016D8062B2BD006D9B3F5801F0DD101
:1033AC0001230B7000207047FBB1022B03D10423C7
:1033BC000B70002070476FF0150070476FF0150010
:1033CC007047134A93421BD0B3F5A00F03D10323CC
:1033DC000B7000207047B3F5800F03D102230B70E4
:1033EC00002070476FF01500704700200870704780
:1033FC0006230B700020704707230B7000207047CA
:10340C0005230B70002070470600F000060010002A
:10341C000200400008B9024870470020704700BF06
:10342C00A0920100F0B585B00E46194643681B7B8F
:10343C0006F01F0545EA4315B2F5005F22D007469A
:10344C001446002302930393104604F06FFF8DF88B
:10345C0008007B689968F14011F0010F02D1B4F5B6
:10346C00A03F14D0002302AA1946284601F0B4F953
:10347C00184B98422AD10121284601F079FB0020F3
:10348C0005B0F0BD284601F0CBFB0020F8E705F0B5
:10349C001F038033104A52F8233013F0010FE1D18F
:1034AC000DF10701284601F007FB0C4B984203D0A5
:1034BC000DF107030393D5E70DF1070001F050FB65
:1034CC00044B9842F4D06FF00B00D9E76FF0040076
:1034DC00D6E700BF0000AD0B002584400400AD0B07
:1034EC0030B583B004460DF1070101F0E5FA05464D
:1034FC00204601F0BFFB0B4B98420FD19D4205D0EB
:10350C00084B984207D1002003B030BD9DF807004E
:10351C0001F01EFBF4E76FF00400F5E76FF0040018
:10352C00F2E700BF0000AD0B2DE9F04387B0D0F8F7
:10353C00048098F80C3001F01F0545EA4315002A69
:10354C0043D00C4617460026039604960DF117013E
:10355C00204601F0B1FA8146334603AA314628468B
:10356C0001F03AF92F4B984259D1994535D017F4BF
:10357C00007F41D00DF103013846FFF705FF0646E9
:10358C0038BB9DF803308DF8043017F4807F0CBFE6
:10359C00012300238DF80530384604F09BFE8DF88E
:1035AC00060017F4006F1DD0D8F80430012101FA81
:1035BC0004F49C60002201A9284601F0BFF9194BC4
:1035CC00984206D06FF0150603E02846FFF788FFF7
:1035DC000646304607B0BDE8F0839DF8170001F0B1
:1035EC00B7FAC4E717F4806FE4D0D8F804200123AD
:1035FC0003FA04F4D460DDE7384604F06BFE8DF872
:10360C00080000231A4602A9284601F0E5F8054BEC
:10361C00984201D10026DCE76FF01506D9E76FF070
:10362C001506D6E70000AD0B08B501F087FA08B116
:10363C00002008BD01F058FA084B98420AD100212D
:10364C00074801F033FA002205213120FFF7A2F8D8
:10365C000020EEE76FF00400EBE700BF0000AD0BBD
:10366C00C98301004368002953D1DA68B2F1FF3FE6
:10367C000DD002F01F02012101FA02F23B498A60CF
:10368C00DA6802F01F028032032041F822001A6926
:10369C00B2F1FF3F0AD0197F002936D0032102F086
:1036AC001F0289008032314840F822105A69B2F169
:1036BC00FF3F0DD002F01F02012101FA02F22B494B
:1036CC008A605A6902F01F028032032041F82200FE
:1036DC009A69B2F1FF3F09D0597FC1B1032102F0C1
:1036EC001F0289008032214840F822101A68D868DD
:1036FC001969C2F80C05C2F814151A6859699B6946
:10370C00C2F80815C2F8103570470021C7E7002130
:10371C00E5E7DA68B2F1FF3F06D002F01F02803213
:10372C001249022041F822001A69B2F1FF3F06D07B
:10373C0002F01F0280320D49022041F822005A6922
:10374C00B2F1FF3F06D002F01F028032074902207F
:10375C0041F822009A69B2F1FF3FC7D002F01F0274
:10376C0080320249022041F82200BFE70025844044
:10377C0043681A68B1F5164F6FD03AD8B1F5165F99
:10378C006ED00AD9B1F5E14F75D024D947F6122382
:10379C0099422BD14FF4000313E0B1F5966F61D031
:1037AC0007D9B1F5166F63D0B1F5965F10D13C4BCC
:1037BC0007E0B1F5967F58D0B1F5167F05D14FF4DF
:1037CC001C33C2F82435002070476FF01500704789
:1037DC006FF015007047B1F5615F4ED0B1F5964FA3
:1037EC0001D1304BEDE76FF0150070476FF015000D
:1037FC007047B1F5613F42D009D9B1F5612F46D080
:10380C001FD9294B994248D14FF08053D9E7B1F5D4
:10381C00963F37D005D9B1F5E13F0FD14FF0EB739F
:10382C00CFE74DF6C02399422ED0B1F5614F02D1AE
:10383C004FF46B03C5E76FF0150070476FF0150080
:10384C0070471A4B994225D0B1F5E12F02D14FF0B8
:10385C00E863B6E76FF0150070474FF41D03B0E74F
:10386C00134BAEE74FF49E23ABE74FF4A033A8E71E
:10387C004FF41D23A5E70F4BA3E70F4BA1E74FF028
:10388C006C739EE70D4B9CE74FF4650399E74FF083
:10389C00706396E74FF0806393E76FF01500704705
:1038AC0000B0130000A04E0040420F0090D0030067
:1038BC000050270000C0750000F03A0000903A015B
:1038CC002DE9F04105460F46D0F8108005F07BFA43
:1038DC0020B9164B1B78ABB1002300E001239BB140
:1038EC004FF02003EFF3118483F31288BFF36F8F33
:1038FC002646284604F02CFE50B984F31188BFF3F9
:10390C006F8FEDE70123EAE7284604F070FE0646C8
:10391C00414601F8107F0122284604F033FE86F35D
:10392C001188BFF36F8FBDE8F08100BF2CCD002054
:10393C0038B505460C4601F1120000F071FD0A4B3A
:10394C0098420ED1A37C43F00043C5F8A031C5F8D2
:10395C008C30A27C01239340044AC2F80435002029
:10396C0038BD6FF00400FBE70000AD0B00700140A8
:10397C0021F07F4100F5A870014B43F820107047EF
:10398C000050014000F5A870014B53F8200070471F
:10399C00005001404FF480338340024AC2F8443354
:1039AC00704700BF005001404FF480338340024AFF
:1039BC00C2F84833704700BF00500140014BD3F8A8
:1039CC00040570470050014010B501238340DC43CF
:1039DC000C4AD2E8EF1F01EA040CC2E8EECFBEF1AC
:1039EC00000FF6D14FF4803202FA00F0064AC2F80A
:1039FC000803BFF35F8FBFF36F8F0B4214BF01201F
:103A0C00002010BD88C800200050014070B504464D
:103A1C0004F0A3FE05464FF48033A340154AD2F8B8
:103A2C000423134205D10026284604F09FFE30469D
:103A3C0070BD0123A340DB430F4AD2E8EF1F01EA1C
:103A4C000300C2E8E60F002EF7D159B904F1500378
:103A5C009B009BB203F1804303F5A8331B6813B1A1
:103A6C00012300E001231E46002BDDD0204604F08C
:103A7C0065FED9E70050014084C8002001B97047A9
:103A8C00012383400E4AD2E8EF1F1943C2E8EC1F12
:103A9C00BCF1000FF7D14FF480338340094AC2F8D0
:103AAC000433094BD3E8AF3F23FA00F010F0010FB9
:103ABC00E5D0064B4FF40012C3F80021DFE700BF3E
:103ACC0088C800200050014084C8002000E100E0BC
:103ADC00F8B5074614461E461046194604F03AFE41
:103AEC000546154B1A68A01A1C605E60A5F50013FC
:103AFC00B3F5400F08D3002403F090FC3846FFF7D1
:103B0C0041FFA8420CD0F8BD0C4B19680B0A0A06F1
:103B1C00521943F100030A49C1E900230124EBE7E0
:103B2C001CB13846FFF736FFEDE74FF4000138467D
:103B3C00FFF71EFFF5E700BFC8C500208CC80020AA
:103B4C00B0C5002038B50D4B1B681D0A1C06BFF311
:103B5C005F8FFFF733FF0346201845F10001B3F5E3
:103B6C00801F0AD2064BD3E90023994208BF90422A
:103B7C0003D210F1807041F1000138BD8CC80020D7
:103B8C00B0C500202DE9F843064614461D461046E4
:103B9C00194604F0DFFD0746FFF7D4FFA94208BF22
:103BAC00A0421ED2B4EB000865EB01094FF0807205
:103BBC0000234B4508BF42452AD3174B03EB061392
:103BCC00D3E90223AB4208BFA24214D03946304697
:103BDC0004F0D1FD394604F0ADFD241845F1000583
:103BEC0009E00123B3400D4AD2E8EF1F1943C2E8A4
:103BFC00E01F0028F8D1084B320103EB0616C6E98A
:103C0C00024508999950099B73600020BDE8F88320
:103C1C006FF01500FAE700BFB8C5002084C800207B
:103C2C0030B583B000231E4AC2F80835002B25DDC1
:103C3C001B4C0225C4F804531A4B4FF40012C3F862
:103C4C008021002201211520FEF7A4FD1520FEF78E
:103C5C0083FD0123144A13602360144A136000246B
:103C6C000194134B0093134A0023204604F0BEFD2D
:103C7C002846FFF72FFB204603B030BD0E4A02EB5F
:103C8C0003124FF0FF304FF0FF31C2E902014FF445
:103C9C0080329A400249C1F804230133C6E700BFC1
:103CAC000050014000E100E00850014088C80020AD
:103CBC00DD3A0100FFFF7F00B8C500202DE9F04779
:103CCC0082B00446FFF7A2FE10B902B0BDE8F0873F
:103CDC00FFF738FF06460F4604F03FFD8246134BB4
:103CEC0003EB0413D3E902894F4508BF46450BD2B9
:103CFC000026504604F03AFD002EE6D000954246D0
:103D0C004B462046B047E0E7084A230102EB04117A
:103D1C00D6584D680020D0504FF0FF324FF0FF3393
:103D2C00C1E902232046FFF73FFEE2E7B8C50020B9
:103D3C0010B50D4BD3F8043313F0020F0AD00B4B14
:103D4C001B683BB1094B00221A601B68084A1368B8
:103D5C00013313600024002C00DD10BD2046FFF75A
:103D6C00ADFF0134F7E700BF0050014004510140A2
:103D7C008CC8002010B582B0B0F1FF3F07D0441EB4
:103D8C00002C07DD114B9C4205DD114C03E000F5C6
:103D9C000000F4E70024FFF7D5FE0E4BD3E9002317
:103DAC00801AB0F5000F00D3002404440134B4F59C
:103DBC00000F00D3064C0020019007490091121906
:103DCC0043F1000304F012FD02B010BDFEFF7F00B2
:103DDC00FFFF7F00C8C50020DD3A010008B5FFF7E2
:103DEC00B1FE024B1B68C01A08BD00BFC8C500203D
:103DFC0010B51D4B1B78C3B1002211462A20FEF7CB
:103E0C00C9FC0021194802F05FFA194B18604FF0F9
:103E1C00FF324FF0FF33174802F0EEFC164B1868D8
:103E2C00E0B1044678B104680DE0134B00221A602F
:103E3C005A60104804F0F8FF0B4B01221A70DBE7B4
:103E4C00234620461C4648B1043002F0A3FD002C4A
:103E5C00F6D02346002CF4D02368F2E7054802F094
:103E6C0055FD002010BD00BFFBCB002008970100C2
:103E7C0090C800209CC8002094C8002030B4044690
:103E8C0000251148034600E008339BB10E4A9342CB
:103E9C0010D3503293420DD21A68A24211D042B1C3
:103EAC000A4A12685968521A9542EDDA15461846B4
:103EBC00EAE718460460054B1B68013B436030BCC5
:103ECC0070471846FBE700BF08C90020E4C8002073
:103EDC00014B1B6843607047E4C8002008B542687A
:103EEC00044B1B689A4201D1012008BDFFF7F0FF7B
:103EFC000020FAE7E4C8002038B504464FF0200350
:103F0C00EFF3118583F31288BFF36F8F03F04CF935
:103F1C00FFF7B4FFFFF7E2FF38B100232360074B34
:103F2C005B683BB11C60054B5C6085F31188BFF38B
:103F3C006F8F38BD014B5C601C60F6E700C9002038
:103F4C0010B54FF02003EFF3118483F31288BFF305
:103F5C006F8F0146144B1B6800226BB1994202D043
:103F6C001A461B68F9E792B1036813600E4B5B6845
:103F7C00984215D00023036003F016F9FFF77EFF7B
:103F8C00FFF7A6FF84F31188BFF36F8F10BD026893
:103F9C00054B1A605B689842ECD1034B5A60E9E719
:103FAC00014B5A60E6E700BF00C90020684620F0CC
:103FBC0007018D4619B5104BD3E8EF2F0132C3E83A
:103FCC00E12F0029F8D101F0C3F90C4B1C6800E07B
:103FDC001C4644B1201D02F0DDFC2346002CF7D01A
:103FEC002368002BF4D1FEF7EBFBFEF7D1FCBDE808
:103FFC0019408546704700BFE4C8002000C9002066
:10400C0038B503682BB1094CA34202D33034A34218
:10401C0007D3074B1C78651C1D70044B03EB041372
:10402C000360006804F007FF38BD00BFB4C800206F
:10403C00FCCB0020024B4FF08052C3F8002170479C
:10404C0000E100E0024B4FF08052C3F88021704732
:10405C0000E100E0024B4FF00052C3F80021704722
:10406C0000E100E0024B4FF00052C3F88021704792
:10407C0000E100E008B5014600220023014804F0ED
:10408C006EFE08BD98C5002008B50146014804F035
:10409C0071FE08BD98C5002008B50146002200231A
:1040AC00014804F05CFE08BDECC8002008B50146D0
:1040BC00014804F05FFE08BDECC8002010B50F4BA2
:1040CC0000241C605C600E4BD3E8EF2FC3E8E14F7B
:1040DC000029F9D104F076FC04222146094803F0AA
:1040EC00FFFF04222146084803F0FAFF4FF4005268
:1040FC000649074804F0E0FD10BD00BF00C90020D0
:10410C00E4C80020B0C80020E8C80020E8840020E3
:10411C00ECC8002070B584B01D4804F07FFC044648
:10412C0000260AE000251AE01A4803F06AFA636ACE
:10413C0000221A60E3681C440136154B9B6BB3429A
:10414C0022D9636A1D6801AB134A07CA83E80700CA
:10415C000C221946284603F088FF0028E2D135B11D
:10416C00636A2146186804F03DFC0028E2D1236AFA
:10417C00002BD9D0094803F044FA404080F3118851
:10418C004FF0040002DFD5E7002004B070BD00BF83
:10419C0000020100589701005C9501002C9701006A
:1041AC00014B024A1A6070471CC500200090D003D6
:1041BC0030B40468B4FA84F3D3F11F0311D4012290
:1041CC009A4024EA0202D0E8EF5FA54204D1C0E88D
:1041DC00EC2FBCF1000FF6D1EBD10B70024830BCC8
:1041EC0070470248FBE700BF0000AD0B0200AD0BAF
:1041FC0010B403680C4623FA01F111F0010F10D131
:10420C0002680123A3401343D0E8EF1F914204D16D
:10421C00C0E8EC3FBCF1000FF6D1F1D1024810BC64
:10422C0070470248FBE700BF0000AD0B0400AD0B6C
:10423C00054B1B792BB9044B186001221A710348EA
:10424C0070470348704700BF58C900200000AD0BF1
:10425C000C00AD0B10B1012821D07047154AD2F8D3
:10426C00183403F00303D2F8182412F4803F0FD152
:10427C00104B0122C3F818250F4B00221A601B6843
:10428C000C4B0222C3F80423083301221A60704736
:10429C00022BEDD1074B0222C3F81825ECE7074B94
:1042AC0000221A601B68034B0122C3F804231A6016
:1042BC00704700BF005000400451004000510040C6
:1042CC0070B5044610B1012811D070BD354B0222D7
:1042DC00C3F8082303F5827300221A601B68324B63
:1042EC0001221A60012C0ED042F2107547E0012316
:1042FC002C4AC2F8083302F5807200211160126852
:10430C002A4A1360EEE7254642F2107613E0254B5D
:10431C00D3F8185405F00305D3F8183413F4803F80
:10432C001BD10023002BD0D0012DCED1012004F0C5
:10433C0087FB013EC9D0002CE9D0012C01D0002311
:10434C00F0E7184BD3F80C5405F00105D3F80C34F6
:10435C0013F4803F03D10023E4E70123E2E70123B8
:10436C00E0E7104BD3F8183413F4803F15D1002339
:10437C00002BAAD0012004F063FB013DA5D0002C3A
:10438C00EFD0012C01D00023F2E7064BD3F80C340C
:10439C0013F4803F03D10023EAE70123E8E701236C
:1043AC00E6E700BF005000400C50004004500040B5
:1043BC0008B5174B1B6853B1154B002018601B68D0
:1043CC00144B0122C3F80823134B1B689847134B5B
:1043DC001B68A3B1114B00221A601B680D4AD2F85E
:1043EC00183403F00303D2F81824012B08D0094B1E
:1043FC000222C3F80823084B1B680120984708BD0C
:10440C00044B0222C3F81825083301221A60F6E780
:10441C00005100400050004058C900200451004099
:10442C0008B501460148FFF7C3FE08BD20C50020B2
:10443C000830034B33F8100000F00100704700BF48
:10444C0024C500200830034B33F81000C0F3401093
:10445C00704700BF24C500200830044B33F810000F
:10446C0010F01C0018BF0120704700BF24C50020AD
:10447C000830034B33F81000C0F34000704700BF06
:10448C0024C500200830024B33F81000400B704755
:10449C0024C50020002204E04FF0FF3383420FD0EC
:1044AC0001321F2A0AD802F10803064931F81330E9
:1044BC0013F4807FF0D0C3F34323EFE70020704761
:1044CC000120704724C50020002313B14FF0FF30AA
:1044DC007047074A52F83320824201D00133F4E787
:1044EC00034A02EBC30252688A42F7D1184670475E
:1044FC0024C500200830064B33F8100010F4807FE0
:10450C0004D0C0F3432003EBC00070470020704779
:10451C0024C5002070B504460D46FFF7EBFF20B113
:10452C000668426829462046B047044B9B6823B175
:10453C00024AD26829462046984770BD24C50020FF
:10454C0070B504460D461646084604F09FFAA8B905
:10455C00022E33D0022004F01F031E49803351F881
:10456C00232022F4403242EA004241F82320032D5A
:10457C0028D0022E24D0032E29D070BD29462046E7
:10458C00FFF7C8FF04F01F0404F18002114B53F82D
:10459C002230C3F301439E42EFD10E4B144653F825
:1045AC00222022F4403243F8242053F8242022F411
:1045BC00403242EA064643F82460DEE70320CAE7AD
:1045CC00012DD8D129462046FFF7A4FFD5E7022DAF
:1045DC00D3D1F7E70025844010B40446002333B947
:1045EC00094A116A44F8041B11620133F7E70023EE
:1045FC0013B1002010BC704750F823200AB90133C6
:10460C00F6E70120F6E700BF0025844000F1080220
:10461C000E4B33F8123013F4807F16D010B5C3F361
:10462C004324104623F4F853084A22F8103020464D
:10463C00FFF730FF00B110BD0448002340F83430C0
:10464C0021465430FFF7D4FDF5E7704724C5002010
:10465C0010B50446FFF7F6FE50B12046FFF712FFE7
:10466C00084B00F5A270002243F8202043F82020CC
:10467C002046FFF7CBFF0834034B002223F814200D
:10468C0010BD00BF0010034024C5002070B582B0DF
:10469C0006460C461546FFF7B9FF24B329462046BB
:1046AC00FFF712FF031E13DB104A42F8334002EBF4
:1046BC00C3014D605B029BB206F1080032F810108A
:1046CC000B4343F4807322F81030094802B070BDDC
:1046DC000DF107010748FFF76BFD054B9842F5D12B
:1046EC009DF80730E0E70248F0E700BF24C5002042
:1046FC000000AD0B78C50020F0B583B0002301A8F5
:10470C0005E0224A116A40F8041B11620133002BA8
:10471C00F7D036E002AB03EB850353F8040C28B357
:10472C0090FAA0F0B0FA80F000EB451000F108020E
:10473C00174B33F81210C60800F0070301AF012421
:10474C0004FA03F2BB5D23EA0203BB5500F01F071A
:10475C000E4E07F1800356F82320C2F30142C1F339
:10476C008201FFF7EDFEBC403462D3E70135002D2A
:10477C00D0D0084B00221A601B6801A8FFF72CFF51
:10478C0008B10025F3E703B0F0BD00BF002584405D
:10479C0024C500207C11034038B50446CCB194FAF2
:1047AC00A4F3B3FA83F301229A4024EA0204094ADF
:1047BC0003F5A27352F82350C5F3042552F82300D5
:1047CC00C0F3014004F060F901462846FFF7A2FE51
:1047DC00E4E738BD001003402DE9F84304461546C4
:1047EC001E4641B30F4604F039F9002840F093807F
:1047FC0004F01F0202F180014B4B53F82130002FC3
:10480C003AD00C2141F0030123EA0103002F35D0EB
:10481C00397889000B438032434941F82230434AAE
:10482C0004F1080132F8113023F002039BB243F07B
:10483C00010322F81130B5B195F80080D5F8049039
:10484C002046FFF715FED8B1B9F1000F65D1374BF3
:10485C0004F1080233F8120020F01C0080B240EA88
:10486C00880023F81200002E5BD072683168204655
:10487C00FFF70CFFBDE8F8830021C3E70021C9E76F
:10488C002A4B04F1080233F8127027F02007FF04BA
:10489C00FF0C23F81270B9F1000FD8D0B8F1030F48
:1048AC003DD86B681D78B8F1000F08D1204B05F589
:1048BC00A275002243F8252043F82520C7E740467F
:1048CC0004F0E3F81A4B05F5A27253F8221021F00C
:1048DC00030143F8221053F8221021F4473121F43C
:1048EC00407143F8221053F822C0210201F4F85110
:1048FC00000400F4403001434CEA010143F822105B
:10490C006D03ADB204F108032F4347F02007074AAB
:10491C0022F813709BE70748ACE70648AAE705485E
:10492C00A8E70548A6E700BF0025844024C5002061
:10493C00001003400400AD0B0000AD0BF8B50446AD
:10494C00164600294AD00D4604F097F828B12046A7
:10495C00FFF778FD002840F095802046FFF77CFD9E
:10496C0018B16B78012B00F08F80A81C04F01F028B
:10497C0002F18001484B53F821106F1C74D00223B4
:10498C0043F00103002871D04FF00C0C43EA0C03E8
:10499C00002D6ED04FF4E06C43EA0C0321EA0301C6
:1049AC00002F69D06B785B0043F00103002865D0C1
:1049BC00A87880000343002D62D0287800020343BE
:1049CC000B438032344941F82230344A04F1080157
:1049DC0032F8113043F0030322F81130002E55D079
:1049EC00204604F04AF8002852D132782C4B02F5BC
:1049FC00A27143F8210043F82100284904F1080072
:104A0C0031F8103023F02003DB04DB0C21F81030DC
:104A1C00717800293ED096F802C0214D02F5A2769D
:104A2C0055F8260020F4981020F4F85045F826008C
:104A3C0055F82670200200F4F850090401F44031B6
:104A4C0001434FEA0C5000F480100143394345F800
:104A5C002610520392B208341A4342F020020F4B34
:104A6C0023F814200F4812E0002389E74FF0000CC4
:104A7C008CE74FF0000C8FE7002395E7002099E7B7
:104A8C0000209CE7084802E0074800E00548F8BD14
:104A9C000548FCE70348FAE70025844024C50020BC
:104AAC00001003400000AD0B0400AD0B014B9860EF
:104ABC00D960704724C5002038B504460D46FFF771
:104ACC00C1FC40B104F10800044B33F810305B0B0F
:104ADC002B70034838BD0348FCE700BF24C50020F9
:104AEC000000AD0B0400AD0B0F4B93F858300BB11D
:104AFC000E48704710B50C4C4022002104F11000F8
:104B0C0003F0EEFA3120FDF727FE094B00221A6064
:104B1C001B68084B4FF00042C3F80423012384F8B0
:104B2C0058306365044810BD24C500200500AD0B4A
:104B3C007C110340001003400000AD0B034B93F8B5
:104B4C005800003818BF0120704700BF24C5002052
:104B5C0008B501460148FFF74BFB08BD74C50020A2
:104B6C0008B501460148FFF723FB08BD74C50020BA
:104B7C0038B504460D46FFF765FC20B3204603F01C
:104B8C007CFF00B32046FFF77DFC830003F58073A8
:104B9C009BB203F1804303F5443300221A601B6877
:104BAC0002F1804202F5443200F5A27152F8213034
:104BBC0043F0010342F8213045B3012303FA00F01E
:104BCC00C2F8040322E004F10803134A32F813304C
:104BDC00C3F38203042B0CD0052B18D004F01F0355
:104BEC000E4A126922FA03F313F0010F11D00321BC
:104BFC0000E0032104F01F04084A803452F82430EA
:104C0C0023F4403343EA014342F8243038BD0221F7
:104C1C00F0E70221EEE700BF24C500200025844008
:104C2C0010B50446FFF70EFCA0B1204603F025FF9B
:104C3C0080B12046FFF726FC012282400B4BC3F8C3
:104C4C00082300F5A27053F8202022F0030243F849
:104C5C00202009E004F01F04054A803452F8243067
:104C6C0023F4403342F8243010BD00BF0010034041
:104C7C000025844010B50446FFF7DAFB08B9084854
:104C8C0010BD2046FFF7CCFF2046FFF7E1FC04F0F7
:104C9C001F048034034B022243F824200248EFE720
:104CAC000400AD0B002584400000AD0B38B501208D
:104CBC004FF4807300210D4603E0400004339BB297
:104CCC000131072914D803F1804202F544321268ED
:104CDC00002AF2D00B4AD2F804231042EDD003F193
:104CEC00804202F544320024146012680543E4E764
:104CFC00054B1B681BB92846FFF74EFD38BDFFF767
:104D0C00FBFCF8E7001003407C11034038B5084B5E
:104D1C001B790BB1074838BD0D4614462A20FDF708
:104D2C001BFD034B01221A711D609C600248F2E7C7
:104D3C0060C900200C00AD0B0000AD0B10B40023BB
:104D4C0008E050F82340DAB202F5A2720D4941F89E
:104D5C0022400133072BF4D900230AE003F10802A7
:104D6C0050F82240DAB202F5B272064941F82240FC
:104D7C000133072BF2D9026C024BC3F8042310BC8D
:104D8C00704700BF00A00240002307E0DAB202F532
:104D9C00A2720E49002041F822000133072BF5D9ED
:104DAC00002307E0DAB202F5B2720849002041F89C
:104DBC0022000133072BF5D9044B4FF0FF32C3F817
:104DCC000823034B00221A71704700BF00A0024059
:104DDC0060C9002008B50C4BD3F80C0302466AB12D
:104DEC0092FAA2F3B3FA83F30121994022EA010269
:104DFC009B000649194400230B60F0E7044B1A682A
:104E0C009968904708BD00BF00A0024000A1024075
:104E1C0060C900202DE9F04180460446002758F86F
:104E2C00086B0C4DF6B22B78B3420AD00137042F25
:104E3C0005F10C05F7D1A06850B103F06EFE00200F
:104E4C0006E0216840466B68090C98470228EDD0B3
:104E5C00BDE8F0818C9701002DE9F84F534F0546C2
:104E6C000021386803F086FD044600284CD12B78CD
:104E7C00D5F80880622B43D0632B43D0612B02D131
:104E8C004B4B1C88A4B2386803F070FDD5F80CA00D
:104E9C002969A8EB0A08A1EB0A039BB214FA88F45F
:104EAC00B4FBF3F203FB12446A68A2EB0A0213FA96
:104EBC0082F2121B92FBF3F003FB10221FFA82F911
:104ECC0014FA82F29342A24422DAA1EB0A039BB2B7
:104EDC00A9EB03049946A4B2B9F1000F64D00520E4
:104EEC00FFF7C8F8804600285ED09CB10520FFF77C
:104EFC00C1F8064670B94046BDE8F84FFFF7C4B894
:104F0C002C4BBEE72C4BBCE7BDE8F84FFFF7A2B823
:104F1C000024E1E70021386803F02CFD40B1FFF7D5
:104F2C0099F84046FFF7B0F8002C3DD03046E3E747
:104F3C002B78622B34D0632B34D0612B07D11C4AD5
:104F4C00138804EB090111FA83F39BB213803868C0
:104F5C006FF0100B6FF0410703F008FD88F800B0FC
:104F6C0088F801702B780521404688F80430A8F8A1
:104F7C00029003F031FD4946504603F02DFD9CB1E3
:104F8C0086F800B077702B78052130463371748029
:104F9C0003F022FD2146E868BDE8F84F03F01CBD84
:104FAC00044ACDE7044ACBE7BDE8F88F7CC9002062
:104FBC00F0CB0020ECCB0020EECB00200023084AE5
:104FCC0010B51380074A04461380074A074813801C
:104FDC0001221146FFF714F8054B1C6010BD00BFF1
:104FEC00F0CB0020ECCB0020EECB00207CC90020C5
:104FFC0078C9002008B5104B1B780BB9FFF732F8B5
:10500C000E4B1868426883689A4201D0FFF724FF60
:10501C000B4B1868826843689A4201D0FFF71CFF5B
:10502C00084B1868826843689A4203D0BDE8084070
:10503C00FFF712BF08BD00BFFDCB002074C90020D4
:10504C006CC9002070C900202DE9F74F434B1B6839
:10505C001969D3F814A01A7C00221A74587C5A745B
:10506C00987C9A74D87CDA74187D1A75587D5A75A8
:10507C00987D9A75D87DDA75002933D001390329CA
:10508C0030D8DFE801F002654C53354A117809B18C
:10509C00002111700022914617461446314D3249B9
:1050AC003248D5F800E0D1F800800668DAF808B08C
:1050BC000195A34519D107B10660B9F1000F01D0D4
:1050CC00C1F8008012B1019AC2F800E01A7A0121ED
:1050DC0000221972597A5A72997A9A72DA7A6FF0A6
:1050EC005F02DA7203B0BDE8F08FA51C0AEB8505F0
:1050FC006D6895F800C0BCF1620F09D0BCF1630F6C
:10510C000AD0BCF1610F04BF2E4601270134D0E751
:10511C00A8464FF00109F9E7AE460122F6E7012156
:10512C000F4A11701A7A03210022D2E7197A04214E
:10513C001972597A5A72997A9A72D97A6FF05F0108
:10514C00D972074B1A7003B0BDE8F04FFFF752BF8E
:10515C0003B0BDE8F04FFEF77DBF00BF78C900205B
:10516C00FDCB002070C900206CC9002074C9002040
:10517C00014B1878704700BFFDCB00202DE9F041A2
:10518C0006460F460025DFF874803368AB4201D821
:10519C00BDE8F08106EBC504A368FBB16368DBB224
:1051AC00012B1BD16268B8F80030B3EB124F15D14C
:1051BC00022FA06814D1FFF72DFE02280ED0012873
:1051CC0013D1636823F0FF0343F002036360B8F864
:1051DC0000300133A8F80030FEF72CFF0135D4E77E
:1051EC000168090C03F057FCE7E70028EFD163686E
:1051FC0023F0FF0343F00303E8E700BFF2CB0020EA
:10520C0070B5164600240368A34201D100231CE0AC
:10521C0000EBC4025568EDB2032D18D101EB8413D9
:10522C009360516821F0FF0151600C490888441CBF
:10523C000C80516889B241EA004151601846402205
:10524C00002102F04DFF03464660184670BD15B9AB
:10525C009568002DE2D00134D6E700BFF4CB0020D6
:10526C0008B50B4B1B68C01A0A4BC0F389101B689E
:10527C0003EBC000436823F0FF0343F001034360DA
:10528C00032003F0D3FA0122034B1A6008BD00BFC0
:10529C0098C900209CC900200CA0024008B50B4BFB
:1052AC001B68C01A0A4BC0F389101B6803EBC000C3
:1052BC00436823F0FF0343F001034360032003F032
:1052CC00B5FA0122034B1A6008BD00BF90C900203B
:1052DC0094C9002004A00240054B1B7833B9054B40
:1052EC0002221968044B1868FFF78ABF0020704728
:1052FC00FFCB002098C900209CC900200A2337B599
:10530C000C4C0D4D0193012221682868FFF778FFA2
:10531C0068B903F027FB18B901A903F08BFAF2E77F
:10532C004FF47A70019B584303F080FAEBE703B01B
:10533C0030BD00BF90C9002094C90020034B1B78DE
:10534C000BB9FEF7A9BE0020704700BFFFCB0020B1
:10535C0010B5064CFEF776FE20680121FFF70EFF14
:10536C0060680221BDE81040FFF708BF84C9002027
:10537C000023114930B50A681468A3420BD10023ED
:10538C004A6811688B4215D002EBC304A468A04292
:10539C0008D00133F6E702EBC305AD68A84201D093
:1053AC000133EAE702EBC3035A6822F0FF0242F032
:1053BC0003025A6030BD00BF84C900202DE9F04FB4
:1053CC00002295B005464D490079FFF79FFC382225
:1053DC00002103A802F084FE022304930823069301
:1053EC002023089301230B9304230D9310234FF0D8
:1053FC00400C0F938023CDE911C3D52303A813933D
:10540C00FFF79CFC2B6800215A68186802F068FEB4
:10541C002A681468D36904F1600604F1A40704F146
:10542C00E80A04F53A7B04F12009002B60D004F162
:10543C0040083349C1F800903BB192694046C8F826
:10544C000420C8F80030FFF7B9FD28680023026972
:10545C00012162604269A170A2602A4A2370176020
:10546C00294A637016600822E370E660276184F8AD
:10547C00A420C4F81490C4F818807B70BB70FB7027
:10548C00142784F86020214A214DC2F800B0214A2B
:10549C007370C2F800A0204AB370F370C2F81046C3
:1054AC00C2F814361D4C29701D49236002930B6001
:1054BC000B681C4E0293029B002001A9019703F07C
:1054CC00B9F9019B143B1E442B78012B04D1002EFF
:1054DC00F2D16FF07303236024685CB9124B1C701B
:1054EC00124B1C80124B1C80204615B0BDE8F08F6F
:1054FC0098469EE7FFF748FCF6E700BF41550100D0
:10550C008CC900209CC9002094C9002098C9002097
:10551C00FECB002090C9002000A0024080C90020D2
:10552C0010560040F0490200FFCB0020F4CB0020C5
:10553C00F2CB002070B5044620060CD5FFF784FD95
:10554C00FFF716FE38B1E0223E4B83F82A234FF4C6
:10555C0080625A6070BDE10748D548F202023A4BAE
:10556C00D3F81436934235D01BD843F2320293420F
:10557C0036D00BD8013B012BECD803220E20334B39
:10558C001A70334B186003F054FBE3E748F2010246
:10559C009342DFD103222D4B1A7016222C4B1A602A
:1055AC00D8E72C4A93420CD8B3F1886F0CD848F248
:1055BC0003029342CED10322244B1A700C22244BAB
:1055CC00EDE7254A9342C5D10321204A1170204AA8
:1055DC001360BFE703221D4B1A705F221C4BDEE7E2
:1055EC0003221A4B1A700522194BD8E714F0400508
:1055FC0003D00222154B1A70ACE7620705D5134B8A
:10560C001A781E463AB9FEF715FDE306A2D5BDE899
:10561C007040FEF70FBD012AF7D1104A10481268EE
:10562C00916841605268026021B11AB1096809B1F0
:10563C0012682AB9032305223370054B1A60E4E77C
:10564C001D70E2E700E100E000A00240FECB00206C
:10565C0080C9002004004004010050058CC90020C2
:10566C0084C9002008B54FF4B0720021024802F042
:10567C0037FD002008BD00BFA0C900202DE9F04176
:10568C0015462C2250431E460E4B0C461F181B5819
:10569C002B408B4202D10020BDE8F0817B68002BAF
:1056AC00F9D1B846D8F800302B40A342F3D0D8F843
:1056BC000430002BEFD13146384603F0BBF80028FC
:1056CC00F0D0E9E7A0C900200D4A70B500231146BF
:1056DC002C2505FB03F40C595CB1D46824F00806A6
:1056EC00022E01D0052C04D105FB03F68C59044382
:1056FC008C510133082B02F12C02EAD170BD00BF92
:10570C00A0C900200D4A70B5002311462C25C043BA
:10571C0005FB03F40C595CB1D46824F00806022E86
:10572C0001D0052C04D105FB03F68C5904408C5197
:10573C000133082B02F12C02EAD170BDA0C9002064
:10574C000A4B024630B500201C462C2101FB00F50B
:10575C00655915B19D69954206D00130082803F1B1
:10576C002C03F3D14FF0FF3030BD00BFA0C9002097
:10577C00072808D82C234343044AD018D358002BAD
:10578C0008BF002070470020704700BFA0C9002050
:10579C006A289ABF014B185C5F207047249801005F
:1057AC00052813D007D870B10B4B1B5C0B4A40F289
:1057BC0015101360704706280BD00D2809D06A28E5
:1057CC00F2D95F23F2E7054B186070474FF48A70EB
:1057DC00704740F2111070472498010008CB00204C
:1057EC0010B50024064B20221C60064B21460648AF
:1057FC001C6002F075FC0122044B20461A7010BD8F
:10580C0014CB002010CB002018CB002001CC0020A2
:10581C0048F20F032DE9F04F994204460E4689B029
:10582C0000F0A48049F20403994200F0AB8048F2E6
:10583C000D03994240F0B880BC4B1A680393012ABF
:10584C002DD14069002840F08C80D4F818A0D4F8F1
:10585C0000804FEA4A1318460193FEF70BFC0746EB
:10586C0010B3242000FB0AF0FEF704FC0546E8B157
:10587C00042600EBCA0307F120090293029BAB42FA
:10588C0018D1BAF1000F05D0019B3B449946002377
:10589C0049F8043CA64B1F600223039A136020684E
:1058AC00002840F0C781C7E1FEF7EEFB0C22A14BAC
:1058BC001A60EFE758F8062008EB060149F8202C8F
:1058CC0008EB06025268B1F812B0013A042A8CBFF8
:1058DC000022994B06F1140698BF9A56974B49F83B
:1058EC001C2C1A68964B49F8182C1A6849F8142C79
:1058FC000A8A9449042A088849F8102C49F80C5C47
:10590C0008EB060121D102226A60102228812A703C
:10591C000A68EA6059F8102C0BF101001644FEF7E6
:10592C00A9FB49F8080C48B15A4608EB060102F0ED
:10593C00B3FB002159F8082C02F80B1049F8049C11
:10594C005E4409F12009083598E70A234FF0240C2E
:10595C0028816B6085F800C005F1100002F09CFBFB
:10596C00D8E7FFF71DFF734B186095E743696A2B67
:10597C008EBF5F23744AD35C744A1360744B01224C
:10598C001A7059E10369032B07D8DFE803F002080A
:10599C0002084FF40030FFF797FE6E4BEFE74FF421
:1059AC000030FFF7AFFEF8E701F41043B3F5104FEA
:1059BC00C0683BD1FFF7C4FE07463846FFF7D8FE58
:1059CC00054600283FF46BAF014633462246384665
:1059DC0000F0F4F9002800F02F8148F20C039E42ED
:1059EC0026D8B6F5004F7FF65AAFA6F50046013E15
:1059FC000B2E3FF654AF01A353F826F0CD5A0100FD
:105A0C00815B01009D5C0100BB5C0100655B0100DA
:105A1C004D5C01004D5C0100C55B0100E75A0100C3
:105A2C00AB580100AB580100EF5B0100070CC4E759
:105A3C0049F202039E4200F0CC8049F203039E42DD
:105A4C005BD049F201039E427FF429AF2E6816F415
:105A5C00801600F0EE80A368042B40F2E780638A86
:105A6C00002B00F0E480102B40F0CC802420FEF7BB
:105A7C0001FB18B30A23436024230370627C237C4C
:105A8C0004F1240143EA0223038100F1100204F122
:105A9C00140353F8046B8B4242F8046BF9D12423A2
:105AAC00226807930492626804A9CDE90520E8698D
:105ABC0003685B689847013040F08F800220BCE09F
:105ACC002B68012B40F0B8806069002840F0E98019
